{
  "_format": "hh-sol-artifact-1",
  "contractName": "InstitutionRegistry",
  "sourceName": "contracts/InstitutionRegistry.sol",
  "abi": [
    {
      "inputs": [],
      "stateMutability": "nonpayable",
      "type": "constructor"
    },
    {
      "inputs": [
        {
          "internalType": "address",
          "name": "owner",
          "type": "address"
        }
      ],
      "name": "OwnableInvalidOwner",
      "type": "error"
    },
    {
      "inputs": [
        {
          "internalType": "address",
          "name": "account",
          "type": "address"
        }
      ],
      "name": "OwnableUnauthorizedAccount",
      "type": "error"
    },
    {
      "anonymous": false,
      "inputs": [
        {
          "indexed": true,
          "internalType": "uint256",
          "name": "institutionId",
          "type": "uint256"
        },
        {
          "indexed": false,
          "internalType": "uint256",
          "name": "timestamp",
          "type": "uint256"
        }
      ],
      "name": "InstitutionDeactivated",
      "type": "event"
    },
    {
      "anonymous": false,
      "inputs": [
        {
          "indexed": true,
          "internalType": "uint256",
          "name": "institutionId",
          "type": "uint256"
        },
        {
          "indexed": false,
          "internalType": "uint256",
          "name": "timestamp",
          "type": "uint256"
        }
      ],
      "name": "InstitutionReactivated",
      "type": "event"
    },
    {
      "anonymous": false,
      "inputs": [
        {
          "indexed": true,
          "internalType": "uint256",
          "name": "institutionId",
          "type": "uint256"
        },
        {
          "indexed": true,
          "internalType": "address",
          "name": "walletAddress",
          "type": "address"
        },
        {
          "indexed": false,
          "internalType": "string",
          "name": "name",
          "type": "string"
        },
        {
          "indexed": false,
          "internalType": "uint256",
          "name": "timestamp",
          "type": "uint256"
        }
      ],
      "name": "InstitutionRegistered",
      "type": "event"
    },
    {
      "anonymous": false,
      "inputs": [
        {
          "indexed": true,
          "internalType": "uint256",
          "name": "institutionId",
          "type": "uint256"
        },
        {
          "indexed": false,
          "internalType": "uint256",
          "name": "timestamp",
          "type": "uint256"
        }
      ],
      "name": "InstitutionUpdated",
      "type": "event"
    },
    {
      "anonymous": false,
      "inputs": [
        {
          "indexed": true,
          "internalType": "uint256",
          "name": "institutionId",
          "type": "uint256"
        },
        {
          "indexed": false,
          "internalType": "uint256",
          "name": "timestamp",
          "type": "uint256"
        }
      ],
      "name": "InstitutionVerified",
      "type": "event"
    },
    {
      "anonymous": false,
      "inputs": [
        {
          "indexed": true,
          "internalType": "address",
          "name": "previousOwner",
          "type": "address"
        },
        {
          "indexed": true,
          "internalType": "address",
          "name": "newOwner",
          "type": "address"
        }
      ],
      "name": "OwnershipTransferred",
      "type": "event"
    },
    {
      "anonymous": false,
      "inputs": [
        {
          "indexed": true,
          "internalType": "uint256",
          "name": "institutionId",
          "type": "uint256"
        },
        {
          "indexed": false,
          "internalType": "string",
          "name": "reason",
          "type": "string"
        },
        {
          "indexed": false,
          "internalType": "uint256",
          "name": "timestamp",
          "type": "uint256"
        }
      ],
      "name": "VerificationRejected",
      "type": "event"
    },
    {
      "anonymous": false,
      "inputs": [
        {
          "indexed": true,
          "internalType": "uint256",
          "name": "institutionId",
          "type": "uint256"
        },
        {
          "indexed": false,
          "internalType": "uint256",
          "name": "timestamp",
          "type": "uint256"
        }
      ],
      "name": "VerificationRequested",
      "type": "event"
    },
    {
      "inputs": [
        {
          "internalType": "uint256",
          "name": "",
          "type": "uint256"
        }
      ],
      "name": "allInstitutionIds",
      "outputs": [
        {
          "internalType": "uint256",
          "name": "",
          "type": "uint256"
        }
      ],
      "stateMutability": "view",
      "type": "function"
    },
    {
      "inputs": [
        {
          "internalType": "uint256",
          "name": "institutionId",
          "type": "uint256"
        }
      ],
      "name": "approveVerification",
      "outputs": [],
      "stateMutability": "nonpayable",
      "type": "function"
    },
    {
      "inputs": [
        {
          "internalType": "uint256",
          "name": "institutionId",
          "type": "uint256"
        }
      ],
      "name": "deactivateInstitution",
      "outputs": [],
      "stateMutability": "nonpayable",
      "type": "function"
    },
    {
      "inputs": [
        {
          "internalType": "address",
          "name": "walletAddress",
          "type": "address"
        }
      ],
      "name": "getInstitutionByAddress",
      "outputs": [
        {
          "components": [
            {
              "internalType": "uint256",
              "name": "id",
              "type": "uint256"
            },
            {
              "internalType": "address",
              "name": "walletAddress",
              "type": "address"
            },
            {
              "internalType": "string",
              "name": "name",
              "type": "string"
            },
            {
              "internalType": "string",
              "name": "registrationNumber",
              "type": "string"
            },
            {
              "internalType": "enum InstitutionRegistry.InstitutionType",
              "name": "institutionType",
              "type": "uint8"
            },
            {
              "internalType": "string",
              "name": "country",
              "type": "string"
            },
            {
              "internalType": "string",
              "name": "website",
              "type": "string"
            },
            {
              "internalType": "string",
              "name": "email",
              "type": "string"
            },
            {
              "internalType": "bool",
              "name": "isVerified",
              "type": "bool"
            },
            {
              "internalType": "bool",
              "name": "isActive",
              "type": "bool"
            },
            {
              "internalType": "uint256",
              "name": "registrationDate",
              "type": "uint256"
            },
            {
              "internalType": "uint256",
              "name": "verificationDate",
              "type": "uint256"
            },
            {
              "internalType": "string",
              "name": "logoIPFS",
              "type": "string"
            }
          ],
          "internalType": "struct InstitutionRegistry.InstitutionDetails",
          "name": "",
          "type": "tuple"
        }
      ],
      "stateMutability": "view",
      "type": "function"
    },
    {
      "inputs": [],
      "name": "getPendingVerifications",
      "outputs": [
        {
          "components": [
            {
              "internalType": "uint256",
              "name": "institutionId",
              "type": "uint256"
            },
            {
              "internalType": "address",
              "name": "requestedBy",
              "type": "address"
            },
            {
              "internalType": "uint256",
              "name": "requestDate",
              "type": "uint256"
            },
            {
              "internalType": "string",
              "name": "documentIPFS",
              "type": "string"
            },
            {
              "internalType": "bool",
              "name": "isPending",
              "type": "bool"
            },
            {
              "internalType": "bool",
              "name": "isApproved",
              "type": "bool"
            },
            {
              "internalType": "string",
              "name": "rejectionReason",
              "type": "string"
            }
          ],
          "internalType": "struct InstitutionRegistry.VerificationRequest[]",
          "name": "",
          "type": "tuple[]"
        }
      ],
      "stateMutability": "view",
      "type": "function"
    },
    {
      "inputs": [],
      "name": "getTotalInstitutions",
      "outputs": [
        {
          "internalType": "uint256",
          "name": "",
          "type": "uint256"
        }
      ],
      "stateMutability": "view",
      "type": "function"
    },
    {
      "inputs": [],
      "name": "getVerifiedInstitutions",
      "outputs": [
        {
          "components": [
            {
              "internalType": "uint256",
              "name": "id",
              "type": "uint256"
            },
            {
              "internalType": "address",
              "name": "walletAddress",
              "type": "address"
            },
            {
              "internalType": "string",
              "name": "name",
              "type": "string"
            },
            {
              "internalType": "string",
              "name": "registrationNumber",
              "type": "string"
            },
            {
              "internalType": "enum InstitutionRegistry.InstitutionType",
              "name": "institutionType",
              "type": "uint8"
            },
            {
              "internalType": "string",
              "name": "country",
              "type": "string"
            },
            {
              "internalType": "string",
              "name": "website",
              "type": "string"
            },
            {
              "internalType": "string",
              "name": "email",
              "type": "string"
            },
            {
              "internalType": "bool",
              "name": "isVerified",
              "type": "bool"
            },
            {
              "internalType": "bool",
              "name": "isActive",
              "type": "bool"
            },
            {
              "internalType": "uint256",
              "name": "registrationDate",
              "type": "uint256"
            },
            {
              "internalType": "uint256",
              "name": "verificationDate",
              "type": "uint256"
            },
            {
              "internalType": "string",
              "name": "logoIPFS",
              "type": "string"
            }
          ],
          "internalType": "struct InstitutionRegistry.InstitutionDetails[]",
          "name": "",
          "type": "tuple[]"
        }
      ],
      "stateMutability": "view",
      "type": "function"
    },
    {
      "inputs": [
        {
          "internalType": "address",
          "name": "",
          "type": "address"
        }
      ],
      "name": "institutionIdByAddress",
      "outputs": [
        {
          "internalType": "uint256",
          "name": "",
          "type": "uint256"
        }
      ],
      "stateMutability": "view",
      "type": "function"
    },
    {
      "inputs": [
        {
          "internalType": "uint256",
          "name": "",
          "type": "uint256"
        }
      ],
      "name": "institutionsById",
      "outputs": [
        {
          "internalType": "uint256",
          "name": "id",
          "type": "uint256"
        },
        {
          "internalType": "address",
          "name": "walletAddress",
          "type": "address"
        },
        {
          "internalType": "string",
          "name": "name",
          "type": "string"
        },
        {
          "internalType": "string",
          "name": "registrationNumber",
          "type": "string"
        },
        {
          "internalType": "enum InstitutionRegistry.InstitutionType",
          "name": "institutionType",
          "type": "uint8"
        },
        {
          "internalType": "string",
          "name": "country",
          "type": "string"
        },
        {
          "internalType": "string",
          "name": "website",
          "type": "string"
        },
        {
          "internalType": "string",
          "name": "email",
          "type": "string"
        },
        {
          "internalType": "bool",
          "name": "isVerified",
          "type": "bool"
        },
        {
          "internalType": "bool",
          "name": "isActive",
          "type": "bool"
        },
        {
          "internalType": "uint256",
          "name": "registrationDate",
          "type": "uint256"
        },
        {
          "internalType": "uint256",
          "name": "verificationDate",
          "type": "uint256"
        },
        {
          "internalType": "string",
          "name": "logoIPFS",
          "type": "string"
        }
      ],
      "stateMutability": "view",
      "type": "function"
    },
    {
      "inputs": [
        {
          "internalType": "address",
          "name": "walletAddress",
          "type": "address"
        }
      ],
      "name": "isVerified",
      "outputs": [
        {
          "internalType": "bool",
          "name": "",
          "type": "bool"
        }
      ],
      "stateMutability": "view",
      "type": "function"
    },
    {
      "inputs": [],
      "name": "owner",
      "outputs": [
        {
          "internalType": "address",
          "name": "",
          "type": "address"
        }
      ],
      "stateMutability": "view",
      "type": "function"
    },
    {
      "inputs": [
        {
          "internalType": "uint256",
          "name": "",
          "type": "uint256"
        }
      ],
      "name": "pendingVerifications",
      "outputs": [
        {
          "internalType": "uint256",
          "name": "",
          "type": "uint256"
        }
      ],
      "stateMutability": "view",
      "type": "function"
    },
    {
      "inputs": [
        {
          "internalType": "uint256",
          "name": "institutionId",
          "type": "uint256"
        }
      ],
      "name": "reactivateInstitution",
      "outputs": [],
      "stateMutability": "nonpayable",
      "type": "function"
    },
    {
      "inputs": [
        {
          "internalType": "string",
          "name": "name",
          "type": "string"
        },
        {
          "internalType": "string",
          "name": "registrationNumber",
          "type": "string"
        },
        {
          "internalType": "enum InstitutionRegistry.InstitutionType",
          "name": "institutionType",
          "type": "uint8"
        },
        {
          "internalType": "string",
          "name": "country",
          "type": "string"
        },
        {
          "internalType": "string",
          "name": "website",
          "type": "string"
        },
        {
          "internalType": "string",
          "name": "email",
          "type": "string"
        },
        {
          "internalType": "string",
          "name": "logoIPFS",
          "type": "string"
        }
      ],
      "name": "registerInstitution",
      "outputs": [
        {
          "internalType": "uint256",
          "name": "",
          "type": "uint256"
        }
      ],
      "stateMutability": "nonpayable",
      "type": "function"
    },
    {
      "inputs": [
        {
          "internalType": "string",
          "name": "",
          "type": "string"
        }
      ],
      "name": "registrationNumberExists",
      "outputs": [
        {
          "internalType": "bool",
          "name": "",
          "type": "bool"
        }
      ],
      "stateMutability": "view",
      "type": "function"
    },
    {
      "inputs": [
        {
          "internalType": "uint256",
          "name": "institutionId",
          "type": "uint256"
        },
        {
          "internalType": "string",
          "name": "reason",
          "type": "string"
        }
      ],
      "name": "rejectVerification",
      "outputs": [],
      "stateMutability": "nonpayable",
      "type": "function"
    },
    {
      "inputs": [],
      "name": "renounceOwnership",
      "outputs": [],
      "stateMutability": "nonpayable",
      "type": "function"
    },
    {
      "inputs": [
        {
          "internalType": "string",
          "name": "documentIPFS",
          "type": "string"
        }
      ],
      "name": "requestVerification",
      "outputs": [],
      "stateMutability": "nonpayable",
      "type": "function"
    },
    {
      "inputs": [
        {
          "internalType": "address",
          "name": "newOwner",
          "type": "address"
        }
      ],
      "name": "transferOwnership",
      "outputs": [],
      "stateMutability": "nonpayable",
      "type": "function"
    },
    {
      "inputs": [
        {
          "internalType": "string",
          "name": "website",
          "type": "string"
        },
        {
          "internalType": "string",
          "name": "email",
          "type": "string"
        },
        {
          "internalType": "string",
          "name": "logoIPFS",
          "type": "string"
        }
      ],
      "name": "updateInstitution",
      "outputs": [],
      "stateMutability": "nonpayable",
      "type": "function"
    },
    {
      "inputs": [
        {
          "internalType": "uint256",
          "name": "",
          "type": "uint256"
        }
      ],
      "name": "verificationRequests",
      "outputs": [
        {
          "internalType": "uint256",
          "name": "institutionId",
          "type": "uint256"
        },
        {
          "internalType": "address",
          "name": "requestedBy",
          "type": "address"
        },
        {
          "internalType": "uint256",
          "name": "requestDate",
          "type": "uint256"
        },
        {
          "internalType": "string",
          "name": "documentIPFS",
          "type": "string"
        },
        {
          "internalType": "bool",
          "name": "isPending",
          "type": "bool"
        },
        {
          "internalType": "bool",
          "name": "isApproved",
          "type": "bool"
        },
        {
          "internalType": "string",
          "name": "rejectionReason",
          "type": "string"
        }
      ],
      "stateMutability": "view",
      "type": "function"
    }
  ],
  "bytecode": "0x60806040523480156200001157600080fd5b5033806200003957604051631e4fbdf760e01b81526000600482015260240160405180910390fd5b62000044816200004b565b506200009b565b600080546001600160a01b038381166001600160a01b0319831681178455604051919092169283917f8be0079c531659141344cd1fd0a4f28419497f9722a3daafe3b4186f6b6457e09190a35050565b612be280620000ab6000396000f3fe608060405234801561001057600080fd5b50600436106101375760003560e01c806368831b23116100b85780638da5cb5b1161007c5780638da5cb5b146102a0578063b9209e33146102bb578063bf21d9ee146102de578063dde38816146102f3578063f2fde38b14610306578063f7f993461461031957600080fd5b806368831b23146102265780636cbff42a146102465780636e6ba98414610259578063704f065614610285578063715018a61461029857600080fd5b80633f1e8f93116100ff5780633f1e8f93146101bf5780634089d49f146101d257806355e95376146101f857806356b1faab1461020b578063594598be1461021e57600080fd5b8063085ab0ac1461013c5780631c296188146101625780632b98222e146101775780632e996a7c146101975780633e64f39b146101aa575b600080fd5b61014f61014a366004612358565b610347565b6040519081526020015b60405180910390f35b61017561017036600461245f565b61075d565b005b61018a610185366004612478565b61081a565b604051610159919061263d565b6101756101a536600461245f565b610c98565b6101b2610d47565b6040516101599190612650565b6101756101cd36600461271d565b610ff1565b6101e56101e036600461245f565b6110ee565b60405161015997969594939291906127a5565b61014f61020636600461245f565b61124e565b61014f61021936600461245f565b61126f565b60015461014f565b61014f610234366004612478565b60036020526000908152604090205481565b610175610254366004612802565b61127f565b61026c61026736600461245f565b6114c3565b6040516101599d9c9b9a9998979695949392919061283f565b61017561029336600461290e565b611870565b610175611935565b6000546040516001600160a01b039091168152602001610159565b6102ce6102c9366004612478565b611949565b6040519015158152602001610159565b6102e66119b0565b6040516101599190612955565b61017561030136600461245f565b611fcc565b610175610314366004612478565b6120a4565b6102ce610327366004612802565b805160208183018101805160058252928201919093012091525460ff1681565b336000908152600360205260408120541561039e5760405162461bcd60e51b8152602060048201526012602482015271105b1c9958591e481c9959da5cdd195c995960721b60448201526064015b60405180910390fd5b6005876040516103ae91906129b7565b9081526040519081900360200190205460ff161561040e5760405162461bcd60e51b815260206004820152601a60248201527f526567697374726174696f6e206e756d626572206578697374730000000000006044820152606401610395565b600088511161044f5760405162461bcd60e51b815260206004820152600d60248201526c13985b59481c995c5d5a5c9959609a1b6044820152606401610395565b60008751116104a05760405162461bcd60e51b815260206004820152601c60248201527f526567697374726174696f6e206e756d626572207265717569726564000000006044820152606401610395565b60008351116104e25760405162461bcd60e51b815260206004820152600e60248201526d115b585a5b081c995c5d5a5c995960921b6044820152606401610395565b600180549060006104f2836129e9565b9091555050600154604080516101a0810182528281523360208201529081018a90526060810189905260808101886004811115610531576105316124f1565b81526020808201899052604080830189905260608301889052600060808401819052600160a085018190524260c086015260e08501829052610100909401889052858152600280845290829020855181559285015193830180546001600160a01b0319166001600160a01b039095169490941790935583015190918201906105b99082612a85565b50606082015160038201906105ce9082612a85565b5060808201518160040160006101000a81548160ff021916908360048111156105f9576105f96124f1565b021790555060a082015160058201906106129082612a85565b5060c082015160068201906106279082612a85565b5060e0820151600782019061063c9082612a85565b506101008281015160088301805461012086015161ffff1990911692151561ff001916929092179115159092021790556101408201516009820155610160820151600a820155610180820151600b8201906106979082612a85565b5050336000908152600360205260409081902083905551600191506005906106c0908b906129b7565b908152604051908190036020018120805492151560ff1990931692909217909155600680546001810182556000919091527ff652222313e28459528d920b65115c16c04f3efc82aaedc97be59f3f377c0d3f01829055339082907f733e4687fb08cbdae572f5e2a18cb390e2b2542176dc582c4c7cd1c19243831f90610749908d904290612b45565b60405180910390a398975050505050505050565b6107656120e2565b600081815260026020526040902060080154610100900460ff16156107bd5760405162461bcd60e51b815260206004820152600e60248201526d416c72656164792061637469766560901b6044820152606401610395565b60008181526002602052604090819020600801805461ff0019166101001790555181907fb3a99177ed23be6122bd638526ffaf441894ed083dd8cdab41695c845b033b9f9061080f9042815260200190565b60405180910390a250565b61082261221b565b6001600160a01b038216600090815260036020526040812054908190036108835760405162461bcd60e51b8152602060048201526015602482015274125b9cdd1a5d1d5d1a5bdb881b9bdd08199bdd5b99605a1b6044820152606401610395565b60008181526002602081815260409283902083516101a0810185528154815260018201546001600160a01b031692810192909252918201805491938401916108ca90612a02565b80601f01602080910402602001604051908101604052809291908181526020018280546108f690612a02565b80156109435780601f1061091857610100808354040283529160200191610943565b820191906000526020600020905b81548152906001019060200180831161092657829003601f168201915b5050505050815260200160038201805461095c90612a02565b80601f016020809104026020016040519081016040528092919081815260200182805461098890612a02565b80156109d55780601f106109aa576101008083540402835291602001916109d5565b820191906000526020600020905b8154815290600101906020018083116109b857829003601f168201915b505050918352505060048281015460209092019160ff16908111156109fc576109fc6124f1565b6004811115610a0d57610a0d6124f1565b8152602001600582018054610a2190612a02565b80601f0160208091040260200160405190810160405280929190818152602001828054610a4d90612a02565b8015610a9a5780601f10610a6f57610100808354040283529160200191610a9a565b820191906000526020600020905b815481529060010190602001808311610a7d57829003601f168201915b50505050508152602001600682018054610ab390612a02565b80601f0160208091040260200160405190810160405280929190818152602001828054610adf90612a02565b8015610b2c5780601f10610b0157610100808354040283529160200191610b2c565b820191906000526020600020905b815481529060010190602001808311610b0f57829003601f168201915b50505050508152602001600782018054610b4590612a02565b80601f0160208091040260200160405190810160405280929190818152602001828054610b7190612a02565b8015610bbe5780601f10610b9357610100808354040283529160200191610bbe565b820191906000526020600020905b815481529060010190602001808311610ba157829003601f168201915b5050509183525050600882015460ff80821615156020840152610100909104161515604082015260098201546060820152600a8201546080820152600b8201805460a090920191610c0e90612a02565b80601f0160208091040260200160405190810160405280929190818152602001828054610c3a90612a02565b8015610c875780601f10610c5c57610100808354040283529160200191610c87565b820191906000526020600020905b815481529060010190602001808311610c6a57829003601f168201915b505050505081525050915050919050565b610ca06120e2565b600081815260026020526040902060080154610100900460ff16610cf95760405162461bcd60e51b815260206004820152601060248201526f416c726561647920696e61637469766560801b6044820152606401610395565b60008181526002602052604090819020600801805461ff00191690555181907fb5bde311c574ae8af6bfd0f69056822ea25b902077f6207ff04fd219703fcd679061080f9042815260200190565b60075460609060009067ffffffffffffffff811115610d6857610d686122a1565b604051908082528060200260200182016040528015610de657816020015b610dd36040518060e001604052806000815260200160006001600160a01b031681526020016000815260200160608152602001600015158152602001600015158152602001606081525090565b815260200190600190039081610d865790505b50905060005b600754811015610feb576004600060078381548110610e0d57610e0d612b67565b906000526020600020015481526020019081526020016000206040518060e0016040529081600082015481526020016001820160009054906101000a90046001600160a01b03166001600160a01b03166001600160a01b0316815260200160028201548152602001600382018054610e8490612a02565b80601f0160208091040260200160405190810160405280929190818152602001828054610eb090612a02565b8015610efd5780601f10610ed257610100808354040283529160200191610efd565b820191906000526020600020905b815481529060010190602001808311610ee057829003601f168201915b5050509183525050600482015460ff808216151560208401526101009091041615156040820152600582018054606090920191610f3990612a02565b80601f0160208091040260200160405190810160405280929190818152602001828054610f6590612a02565b8015610fb25780601f10610f8757610100808354040283529160200191610fb2565b820191906000526020600020905b815481529060010190602001808311610f9557829003601f168201915b505050505081525050828281518110610fcd57610fcd612b67565b60200260200101819052508080610fe3906129e9565b915050610dec565b50919050565b33600090815260036020526040812054908190036110425760405162461bcd60e51b815260206004820152600e60248201526d139bdd081c9959da5cdd195c995960921b6044820152606401610395565b8351156110665760008181526002602052604090206006016110648582612a85565b505b82511561108a5760008181526002602052604090206007016110888482612a85565b505b8151156110ae576000818152600260205260409020600b016110ac8382612a85565b505b807f9148b2cf5d564802f85cb773f9b5e126f0c58a656d863b555ecc520fc0b81dda426040516110e091815260200190565b60405180910390a250505050565b600460205260009081526040902080546001820154600283015460038401805493946001600160a01b039093169391929161112890612a02565b80601f016020809104026020016040519081016040528092919081815260200182805461115490612a02565b80156111a15780601f10611176576101008083540402835291602001916111a1565b820191906000526020600020905b81548152906001019060200180831161118457829003601f168201915b505050506004830154600584018054939460ff80841695610100909404169350916111cb90612a02565b80601f01602080910402602001604051908101604052809291908181526020018280546111f790612a02565b80156112445780601f1061121957610100808354040283529160200191611244565b820191906000526020600020905b81548152906001019060200180831161122757829003601f168201915b5050505050905087565b6007818154811061125e57600080fd5b600091825260209091200154905081565b6006818154811061125e57600080fd5b33600090815260036020526040812054908190036112d05760405162461bcd60e51b815260206004820152600e60248201526d139bdd081c9959da5cdd195c995960921b6044820152606401610395565b60008181526002602052604090206008015460ff16156113255760405162461bcd60e51b815260206004820152601060248201526f105b1c9958591e481d995c9a599a595960821b6044820152606401610395565b6000818152600460208190526040909120015460ff161561137a5760405162461bcd60e51b815260206004820152600f60248201526e526571756573742070656e64696e6760881b6044820152606401610395565b6040805160e0810182528281523360208083019182524283850190815260608401878152600160808601819052600060a087018190528751808601895281815260c088015288815260049094529590922084518155925194830180546001600160a01b0319166001600160a01b0390961695909517909455925160028201559151909190600382019061140d9082612a85565b50608082015160048201805460a085015115156101000261ff00199315159390931661ffff199091161791909117905560c082015160058201906114519082612a85565b5050600780546001810182556000919091527fa66cc928b5edb82af9bd49922954155ab7b0942694bea4ce44661d9a8736c688018290555060405142815281907f5a672cc58b9ce06e218ce4785a6c2bde4d662895cab3c934f216075500ae9e14906020015b60405180910390a25050565b600260208190526000918252604090912080546001820154928201805491936001600160a01b031692916114f690612a02565b80601f016020809104026020016040519081016040528092919081815260200182805461152290612a02565b801561156f5780601f106115445761010080835404028352916020019161156f565b820191906000526020600020905b81548152906001019060200180831161155257829003601f168201915b50505050509080600301805461158490612a02565b80601f01602080910402602001604051908101604052809291908181526020018280546115b090612a02565b80156115fd5780601f106115d2576101008083540402835291602001916115fd565b820191906000526020600020905b8154815290600101906020018083116115e057829003601f168201915b5050506004840154600585018054949560ff90921694919350915061162190612a02565b80601f016020809104026020016040519081016040528092919081815260200182805461164d90612a02565b801561169a5780601f1061166f5761010080835404028352916020019161169a565b820191906000526020600020905b81548152906001019060200180831161167d57829003601f168201915b5050505050908060060180546116af90612a02565b80601f01602080910402602001604051908101604052809291908181526020018280546116db90612a02565b80156117285780601f106116fd57610100808354040283529160200191611728565b820191906000526020600020905b81548152906001019060200180831161170b57829003601f168201915b50505050509080600701805461173d90612a02565b80601f016020809104026020016040519081016040528092919081815260200182805461176990612a02565b80156117b65780601f1061178b576101008083540402835291602001916117b6565b820191906000526020600020905b81548152906001019060200180831161179957829003601f168201915b50505060088401546009850154600a860154600b87018054969760ff8086169861010090960416965092945090926117ed90612a02565b80601f016020809104026020016040519081016040528092919081815260200182805461181990612a02565b80156118665780601f1061183b57610100808354040283529160200191611866565b820191906000526020600020905b81548152906001019060200180831161184957829003601f168201915b505050505090508d565b6118786120e2565b6000828152600460208190526040909120015460ff166118cf5760405162461bcd60e51b8152602060048201526012602482015271139bc81c195b991a5b99c81c995c5d595cdd60721b6044820152606401610395565b6000828152600460208190526040909120908101805461ffff191690556005016118f98282612a85565b506119038261210f565b817f10713cf9cb4cbd5f3eccdd525f062734857bac52aa701b5586bebd9e127b665082426040516114b7929190612b45565b61193d6120e2565b61194760006121cb565b565b6001600160a01b0381166000908152600360205260408120548082036119725750600092915050565b60008181526002602052604090206008015460ff1680156119a95750600081815260026020526040902060080154610100900460ff165b9392505050565b60606000805b600654811015611a675760026000600683815481106119d7576119d7612b67565b6000918252602080832090910154835282019290925260400190206008015460ff168015611a4257506002600060068381548110611a1757611a17612b67565b9060005260206000200154815260200190815260200160002060080160019054906101000a900460ff165b15611a555781611a51816129e9565b9250505b80611a5f816129e9565b9150506119b6565b5060008167ffffffffffffffff811115611a8357611a836122a1565b604051908082528060200260200182016040528015611abc57816020015b611aa961221b565b815260200190600190039081611aa15790505b5090506000805b600654811015611fc3576002600060068381548110611ae457611ae4612b67565b6000918252602080832090910154835282019290925260400190206008015460ff168015611b4f57506002600060068381548110611b2457611b24612b67565b9060005260206000200154815260200190815260200160002060080160019054906101000a900460ff165b15611fb1576002600060068381548110611b6b57611b6b612b67565b60009182526020808320909101548352828101939093526040918201902081516101a0810183528154815260018201546001600160a01b0316938101939093526002810180549192840191611bbf90612a02565b80601f0160208091040260200160405190810160405280929190818152602001828054611beb90612a02565b8015611c385780601f10611c0d57610100808354040283529160200191611c38565b820191906000526020600020905b815481529060010190602001808311611c1b57829003601f168201915b50505050508152602001600382018054611c5190612a02565b80601f0160208091040260200160405190810160405280929190818152602001828054611c7d90612a02565b8015611cca5780601f10611c9f57610100808354040283529160200191611cca565b820191906000526020600020905b815481529060010190602001808311611cad57829003601f168201915b505050918352505060048281015460209092019160ff1690811115611cf157611cf16124f1565b6004811115611d0257611d026124f1565b8152602001600582018054611d1690612a02565b80601f0160208091040260200160405190810160405280929190818152602001828054611d4290612a02565b8015611d8f5780601f10611d6457610100808354040283529160200191611d8f565b820191906000526020600020905b815481529060010190602001808311611d7257829003601f168201915b50505050508152602001600682018054611da890612a02565b80601f0160208091040260200160405190810160405280929190818152602001828054611dd490612a02565b8015611e215780601f10611df657610100808354040283529160200191611e21565b820191906000526020600020905b815481529060010190602001808311611e0457829003601f168201915b50505050508152602001600782018054611e3a90612a02565b80601f0160208091040260200160405190810160405280929190818152602001828054611e6690612a02565b8015611eb35780601f10611e8857610100808354040283529160200191611eb3565b820191906000526020600020905b815481529060010190602001808311611e9657829003601f168201915b5050509183525050600882015460ff80821615156020840152610100909104161515604082015260098201546060820152600a8201546080820152600b8201805460a090920191611f0390612a02565b80601f0160208091040260200160405190810160405280929190818152602001828054611f2f90612a02565b8015611f7c5780601f10611f5157610100808354040283529160200191611f7c565b820191906000526020600020905b815481529060010190602001808311611f5f57829003601f168201915b505050505081525050838381518110611f9757611f97612b67565b60200260200101819052508180611fad906129e9565b9250505b80611fbb816129e9565b915050611ac3565b50909392505050565b611fd46120e2565b6000818152600460208190526040909120015460ff1661202b5760405162461bcd60e51b8152602060048201526012602482015271139bc81c195b991a5b99c81c995c5d595cdd60721b6044820152606401610395565b600081815260026020908152604080832060088101805460ff1916600117905542600a9091015560049182905290912001805461ffff19166101001790556120728161210f565b807fe84ad7aa3e57f902eb160cb8e8ee9f8c13ef55069339fca69a78e1ac01450cfa4260405161080f91815260200190565b6120ac6120e2565b6001600160a01b0381166120d657604051631e4fbdf760e01b815260006004820152602401610395565b6120df816121cb565b50565b6000546001600160a01b031633146119475760405163118cdaa760e01b8152336004820152602401610395565b60005b6007548110156121c757816007828154811061213057612130612b67565b9060005260206000200154036121b5576007805461215090600190612b7d565b8154811061216057612160612b67565b90600052602060002001546007828154811061217e5761217e612b67565b600091825260209091200155600780548061219b5761219b612b96565b600190038181906000526020600020016000905590555050565b806121bf816129e9565b915050612112565b5050565b600080546001600160a01b038381166001600160a01b0319831681178455604051919092169283917f8be0079c531659141344cd1fd0a4f28419497f9722a3daafe3b4186f6b6457e09190a35050565b604051806101a001604052806000815260200160006001600160a01b0316815260200160608152602001606081526020016000600481111561225f5761225f6124f1565b81526020016060815260200160608152602001606081526020016000151581526020016000151581526020016000815260200160008152602001606081525090565b634e487b7160e01b600052604160045260246000fd5b600082601f8301126122c857600080fd5b813567ffffffffffffffff808211156122e3576122e36122a1565b604051601f8301601f19908116603f0116810190828211818310171561230b5761230b6122a1565b8160405283815286602085880101111561232457600080fd5b836020870160208301376000602085830101528094505050505092915050565b80356005811061235357600080fd5b919050565b600080600080600080600060e0888a03121561237357600080fd5b873567ffffffffffffffff8082111561238b57600080fd5b6123978b838c016122b7565b985060208a01359150808211156123ad57600080fd5b6123b98b838c016122b7565b97506123c760408b01612344565b965060608a01359150808211156123dd57600080fd5b6123e98b838c016122b7565b955060808a01359150808211156123ff57600080fd5b61240b8b838c016122b7565b945060a08a013591508082111561242157600080fd5b61242d8b838c016122b7565b935060c08a013591508082111561244357600080fd5b506124508a828b016122b7565b91505092959891949750929550565b60006020828403121561247157600080fd5b5035919050565b60006020828403121561248a57600080fd5b81356001600160a01b03811681146119a957600080fd5b60005b838110156124bc5781810151838201526020016124a4565b50506000910152565b600081518084526124dd8160208601602086016124a1565b601f01601f19169290920160200192915050565b634e487b7160e01b600052602160045260246000fd5b6005811061252557634e487b7160e01b600052602160045260246000fd5b9052565b60006101a082518452602083015161254c60208601826001600160a01b03169052565b506040830151816040860152612564828601826124c5565b9150506060830151848203606086015261257e82826124c5565b91505060808301516125936080860182612507565b5060a083015184820360a08601526125ab82826124c5565b91505060c083015184820360c08601526125c582826124c5565b91505060e083015184820360e08601526125df82826124c5565b915050610100808401516125f68287018215159052565b50506101208381015115159085015261014080840151908501526101608084015190850152610180808401518583038287015261263383826124c5565b9695505050505050565b6020815260006119a96020830184612529565b60006020808301818452808551808352604092508286019150828160051b87010184880160005b8381101561270f57888303603f19018552815180518452878101516001600160a01b031688850152868101518785015260608082015160e082870181905291906126c3838801826124c5565b925050506080808301511515818701525060a0808301511515818701525060c080830151925085820381870152506126fb81836124c5565b968901969450505090860190600101612677565b509098975050505050505050565b60008060006060848603121561273257600080fd5b833567ffffffffffffffff8082111561274a57600080fd5b612756878388016122b7565b9450602086013591508082111561276c57600080fd5b612778878388016122b7565b9350604086013591508082111561278e57600080fd5b5061279b868287016122b7565b9150509250925092565b87815260018060a01b038716602082015285604082015260e0606082015260006127d260e08301876124c5565b851515608084015284151560a084015282810360c08401526127f481856124c5565b9a9950505050505050505050565b60006020828403121561281457600080fd5b813567ffffffffffffffff81111561282b57600080fd5b612837848285016122b7565b949350505050565b8d81526001600160a01b038d1660208201526101a0604082015260006128696101a083018e6124c5565b828103606084015261287b818e6124c5565b905061288a608084018d612507565b82810360a084015261289c818c6124c5565b905082810360c08401526128b0818b6124c5565b905082810360e08401526128c4818a6124c5565b881515610100850152905086151561012084015285610140840152846101608401528281036101808401526128f981856124c5565b9150509e9d5050505050505050505050505050565b6000806040838503121561292157600080fd5b82359150602083013567ffffffffffffffff81111561293f57600080fd5b61294b858286016122b7565b9150509250929050565b6000602080830181845280855180835260408601915060408160051b870101925083870160005b828110156129aa57603f19888603018452612998858351612529565b9450928501929085019060010161297c565b5092979650505050505050565b600082516129c98184602087016124a1565b9190910192915050565b634e487b7160e01b600052601160045260246000fd5b6000600182016129fb576129fb6129d3565b5060010190565b600181811c90821680612a1657607f821691505b602082108103610feb57634e487b7160e01b600052602260045260246000fd5b601f821115612a8057600081815260208120601f850160051c81016020861015612a5d5750805b601f850160051c820191505b81811015612a7c57828155600101612a69565b5050505b505050565b815167ffffffffffffffff811115612a9f57612a9f6122a1565b612ab381612aad8454612a02565b84612a36565b602080601f831160018114612ae85760008415612ad05750858301515b600019600386901b1c1916600185901b178555612a7c565b600085815260208120601f198616915b82811015612b1757888601518255948401946001909101908401612af8565b5085821015612b355787850151600019600388901b60f8161c191681555b5050505050600190811b01905550565b604081526000612b5860408301856124c5565b90508260208301529392505050565b634e487b7160e01b600052603260045260246000fd5b81810381811115612b9057612b906129d3565b92915050565b634e487b7160e01b600052603160045260246000fdfea2646970667358221220a05b907cc14b3321abbf95280e7f931cb8ae4830affff180bc480af8b7d5d9cd64736f6c63430008140033",
  "linkReferences": {},
  "deployedLinkReferences": {}
}