{
  "_format": "hh-sol-artifact-1",
  "contractName": "CredentialNFT",
  "sourceName": "contracts/CredentialNFT.sol",
  "abi": [
    {
      "inputs": [],
      "stateMutability": "nonpayable",
      "type": "constructor"
    },
    {
      "inputs": [],
      "name": "AccessControlBadConfirmation",
      "type": "error"
    },
    {
      "inputs": [
        {
          "internalType": "address",
          "name": "account",
          "type": "address"
        },
        {
          "internalType": "bytes32",
          "name": "neededRole",
          "type": "bytes32"
        }
      ],
      "name": "AccessControlUnauthorizedAccount",
      "type": "error"
    },
    {
      "inputs": [
        {
          "internalType": "address",
          "name": "sender",
          "type": "address"
        },
        {
          "internalType": "uint256",
          "name": "tokenId",
          "type": "uint256"
        },
        {
          "internalType": "address",
          "name": "owner",
          "type": "address"
        }
      ],
      "name": "ERC721IncorrectOwner",
      "type": "error"
    },
    {
      "inputs": [
        {
          "internalType": "address",
          "name": "operator",
          "type": "address"
        },
        {
          "internalType": "uint256",
          "name": "tokenId",
          "type": "uint256"
        }
      ],
      "name": "ERC721InsufficientApproval",
      "type": "error"
    },
    {
      "inputs": [
        {
          "internalType": "address",
          "name": "approver",
          "type": "address"
        }
      ],
      "name": "ERC721InvalidApprover",
      "type": "error"
    },
    {
      "inputs": [
        {
          "internalType": "address",
          "name": "operator",
          "type": "address"
        }
      ],
      "name": "ERC721InvalidOperator",
      "type": "error"
    },
    {
      "inputs": [
        {
          "internalType": "address",
          "name": "owner",
          "type": "address"
        }
      ],
      "name": "ERC721InvalidOwner",
      "type": "error"
    },
    {
      "inputs": [
        {
          "internalType": "address",
          "name": "receiver",
          "type": "address"
        }
      ],
      "name": "ERC721InvalidReceiver",
      "type": "error"
    },
    {
      "inputs": [
        {
          "internalType": "address",
          "name": "sender",
          "type": "address"
        }
      ],
      "name": "ERC721InvalidSender",
      "type": "error"
    },
    {
      "inputs": [
        {
          "internalType": "uint256",
          "name": "tokenId",
          "type": "uint256"
        }
      ],
      "name": "ERC721NonexistentToken",
      "type": "error"
    },
    {
      "anonymous": false,
      "inputs": [
        {
          "indexed": true,
          "internalType": "address",
          "name": "owner",
          "type": "address"
        },
        {
          "indexed": true,
          "internalType": "address",
          "name": "approved",
          "type": "address"
        },
        {
          "indexed": true,
          "internalType": "uint256",
          "name": "tokenId",
          "type": "uint256"
        }
      ],
      "name": "Approval",
      "type": "event"
    },
    {
      "anonymous": false,
      "inputs": [
        {
          "indexed": true,
          "internalType": "address",
          "name": "owner",
          "type": "address"
        },
        {
          "indexed": true,
          "internalType": "address",
          "name": "operator",
          "type": "address"
        },
        {
          "indexed": false,
          "internalType": "bool",
          "name": "approved",
          "type": "bool"
        }
      ],
      "name": "ApprovalForAll",
      "type": "event"
    },
    {
      "anonymous": false,
      "inputs": [
        {
          "indexed": false,
          "internalType": "uint256",
          "name": "_fromTokenId",
          "type": "uint256"
        },
        {
          "indexed": false,
          "internalType": "uint256",
          "name": "_toTokenId",
          "type": "uint256"
        }
      ],
      "name": "BatchMetadataUpdate",
      "type": "event"
    },
    {
      "anonymous": false,
      "inputs": [
        {
          "indexed": true,
          "internalType": "uint256",
          "name": "tokenId",
          "type": "uint256"
        },
        {
          "indexed": true,
          "internalType": "address",
          "name": "institution",
          "type": "address"
        },
        {
          "indexed": true,
          "internalType": "address",
          "name": "student",
          "type": "address"
        },
        {
          "indexed": false,
          "internalType": "string",
          "name": "credentialType",
          "type": "string"
        },
        {
          "indexed": false,
          "internalType": "uint256",
          "name": "timestamp",
          "type": "uint256"
        }
      ],
      "name": "CredentialIssued",
      "type": "event"
    },
    {
      "anonymous": false,
      "inputs": [
        {
          "indexed": true,
          "internalType": "uint256",
          "name": "tokenId",
          "type": "uint256"
        },
        {
          "indexed": true,
          "internalType": "address",
          "name": "institution",
          "type": "address"
        },
        {
          "indexed": false,
          "internalType": "uint256",
          "name": "timestamp",
          "type": "uint256"
        }
      ],
      "name": "CredentialRevoked",
      "type": "event"
    },
    {
      "anonymous": false,
      "inputs": [
        {
          "indexed": true,
          "internalType": "uint256",
          "name": "tokenId",
          "type": "uint256"
        },
        {
          "indexed": true,
          "internalType": "address",
          "name": "verifier",
          "type": "address"
        },
        {
          "indexed": false,
          "internalType": "uint256",
          "name": "timestamp",
          "type": "uint256"
        }
      ],
      "name": "CredentialVerified",
      "type": "event"
    },
    {
      "anonymous": false,
      "inputs": [
        {
          "indexed": true,
          "internalType": "address",
          "name": "institution",
          "type": "address"
        },
        {
          "indexed": false,
          "internalType": "string",
          "name": "name",
          "type": "string"
        },
        {
          "indexed": false,
          "internalType": "uint256",
          "name": "timestamp",
          "type": "uint256"
        }
      ],
      "name": "InstitutionRegistered",
      "type": "event"
    },
    {
      "anonymous": false,
      "inputs": [
        {
          "indexed": true,
          "internalType": "address",
          "name": "institution",
          "type": "address"
        },
        {
          "indexed": false,
          "internalType": "uint256",
          "name": "timestamp",
          "type": "uint256"
        }
      ],
      "name": "InstitutionRevoked",
      "type": "event"
    },
    {
      "anonymous": false,
      "inputs": [
        {
          "indexed": true,
          "internalType": "address",
          "name": "institution",
          "type": "address"
        },
        {
          "indexed": false,
          "internalType": "uint256",
          "name": "timestamp",
          "type": "uint256"
        }
      ],
      "name": "InstitutionVerified",
      "type": "event"
    },
    {
      "anonymous": false,
      "inputs": [
        {
          "indexed": false,
          "internalType": "uint256",
          "name": "_tokenId",
          "type": "uint256"
        }
      ],
      "name": "MetadataUpdate",
      "type": "event"
    },
    {
      "anonymous": false,
      "inputs": [
        {
          "indexed": true,
          "internalType": "bytes32",
          "name": "role",
          "type": "bytes32"
        },
        {
          "indexed": true,
          "internalType": "bytes32",
          "name": "previousAdminRole",
          "type": "bytes32"
        },
        {
          "indexed": true,
          "internalType": "bytes32",
          "name": "newAdminRole",
          "type": "bytes32"
        }
      ],
      "name": "RoleAdminChanged",
      "type": "event"
    },
    {
      "anonymous": false,
      "inputs": [
        {
          "indexed": true,
          "internalType": "bytes32",
          "name": "role",
          "type": "bytes32"
        },
        {
          "indexed": true,
          "internalType": "address",
          "name": "account",
          "type": "address"
        },
        {
          "indexed": true,
          "internalType": "address",
          "name": "sender",
          "type": "address"
        }
      ],
      "name": "RoleGranted",
      "type": "event"
    },
    {
      "anonymous": false,
      "inputs": [
        {
          "indexed": true,
          "internalType": "bytes32",
          "name": "role",
          "type": "bytes32"
        },
        {
          "indexed": true,
          "internalType": "address",
          "name": "account",
          "type": "address"
        },
        {
          "indexed": true,
          "internalType": "address",
          "name": "sender",
          "type": "address"
        }
      ],
      "name": "RoleRevoked",
      "type": "event"
    },
    {
      "anonymous": false,
      "inputs": [
        {
          "indexed": true,
          "internalType": "address",
          "name": "from",
          "type": "address"
        },
        {
          "indexed": true,
          "internalType": "address",
          "name": "to",
          "type": "address"
        },
        {
          "indexed": true,
          "internalType": "uint256",
          "name": "tokenId",
          "type": "uint256"
        }
      ],
      "name": "Transfer",
      "type": "event"
    },
    {
      "inputs": [],
      "name": "ADMIN_ROLE",
      "outputs": [
        {
          "internalType": "bytes32",
          "name": "",
          "type": "bytes32"
        }
      ],
      "stateMutability": "view",
      "type": "function"
    },
    {
      "inputs": [],
      "name": "DEFAULT_ADMIN_ROLE",
      "outputs": [
        {
          "internalType": "bytes32",
          "name": "",
          "type": "bytes32"
        }
      ],
      "stateMutability": "view",
      "type": "function"
    },
    {
      "inputs": [],
      "name": "INSTITUTION_ROLE",
      "outputs": [
        {
          "internalType": "bytes32",
          "name": "",
          "type": "bytes32"
        }
      ],
      "stateMutability": "view",
      "type": "function"
    },
    {
      "inputs": [
        {
          "internalType": "address",
          "name": "to",
          "type": "address"
        },
        {
          "internalType": "uint256",
          "name": "tokenId",
          "type": "uint256"
        }
      ],
      "name": "approve",
      "outputs": [],
      "stateMutability": "nonpayable",
      "type": "function"
    },
    {
      "inputs": [
        {
          "internalType": "address",
          "name": "owner",
          "type": "address"
        }
      ],
      "name": "balanceOf",
      "outputs": [
        {
          "internalType": "uint256",
          "name": "",
          "type": "uint256"
        }
      ],
      "stateMutability": "view",
      "type": "function"
    },
    {
      "inputs": [
        {
          "internalType": "string",
          "name": "",
          "type": "string"
        }
      ],
      "name": "credentialByHash",
      "outputs": [
        {
          "internalType": "uint256",
          "name": "",
          "type": "uint256"
        }
      ],
      "stateMutability": "view",
      "type": "function"
    },
    {
      "inputs": [
        {
          "internalType": "uint256",
          "name": "",
          "type": "uint256"
        }
      ],
      "name": "credentials",
      "outputs": [
        {
          "internalType": "uint256",
          "name": "tokenId",
          "type": "uint256"
        },
        {
          "internalType": "address",
          "name": "institution",
          "type": "address"
        },
        {
          "internalType": "address",
          "name": "student",
          "type": "address"
        },
        {
          "internalType": "string",
          "name": "credentialType",
          "type": "string"
        },
        {
          "internalType": "string",
          "name": "courseName",
          "type": "string"
        },
        {
          "internalType": "string",
          "name": "studentName",
          "type": "string"
        },
        {
          "internalType": "string",
          "name": "studentId",
          "type": "string"
        },
        {
          "internalType": "uint256",
          "name": "issueDate",
          "type": "uint256"
        },
        {
          "internalType": "uint256",
          "name": "expiryDate",
          "type": "uint256"
        },
        {
          "internalType": "string",
          "name": "ipfsHash",
          "type": "string"
        },
        {
          "internalType": "enum CredentialNFT.CredentialStatus",
          "name": "status",
          "type": "uint8"
        },
        {
          "internalType": "string",
          "name": "grade",
          "type": "string"
        }
      ],
      "stateMutability": "view",
      "type": "function"
    },
    {
      "inputs": [
        {
          "internalType": "uint256",
          "name": "tokenId",
          "type": "uint256"
        }
      ],
      "name": "getApproved",
      "outputs": [
        {
          "internalType": "address",
          "name": "",
          "type": "address"
        }
      ],
      "stateMutability": "view",
      "type": "function"
    },
    {
      "inputs": [
        {
          "internalType": "uint256",
          "name": "tokenId",
          "type": "uint256"
        }
      ],
      "name": "getCredential",
      "outputs": [
        {
          "components": [
            {
              "internalType": "uint256",
              "name": "tokenId",
              "type": "uint256"
            },
            {
              "internalType": "address",
              "name": "institution",
              "type": "address"
            },
            {
              "internalType": "address",
              "name": "student",
              "type": "address"
            },
            {
              "internalType": "string",
              "name": "credentialType",
              "type": "string"
            },
            {
              "internalType": "string",
              "name": "courseName",
              "type": "string"
            },
            {
              "internalType": "string",
              "name": "studentName",
              "type": "string"
            },
            {
              "internalType": "string",
              "name": "studentId",
              "type": "string"
            },
            {
              "internalType": "uint256",
              "name": "issueDate",
              "type": "uint256"
            },
            {
              "internalType": "uint256",
              "name": "expiryDate",
              "type": "uint256"
            },
            {
              "internalType": "string",
              "name": "ipfsHash",
              "type": "string"
            },
            {
              "internalType": "enum CredentialNFT.CredentialStatus",
              "name": "status",
              "type": "uint8"
            },
            {
              "internalType": "string",
              "name": "grade",
              "type": "string"
            }
          ],
          "internalType": "struct CredentialNFT.Credential",
          "name": "",
          "type": "tuple"
        }
      ],
      "stateMutability": "view",
      "type": "function"
    },
    {
      "inputs": [
        {
          "internalType": "string",
          "name": "ipfsHash",
          "type": "string"
        }
      ],
      "name": "getCredentialByHash",
      "outputs": [
        {
          "internalType": "bool",
          "name": "exists",
          "type": "bool"
        },
        {
          "components": [
            {
              "internalType": "uint256",
              "name": "tokenId",
              "type": "uint256"
            },
            {
              "internalType": "address",
              "name": "institution",
              "type": "address"
            },
            {
              "internalType": "address",
              "name": "student",
              "type": "address"
            },
            {
              "internalType": "string",
              "name": "credentialType",
              "type": "string"
            },
            {
              "internalType": "string",
              "name": "courseName",
              "type": "string"
            },
            {
              "internalType": "string",
              "name": "studentName",
              "type": "string"
            },
            {
              "internalType": "string",
              "name": "studentId",
              "type": "string"
            },
            {
              "internalType": "uint256",
              "name": "issueDate",
              "type": "uint256"
            },
            {
              "internalType": "uint256",
              "name": "expiryDate",
              "type": "uint256"
            },
            {
              "internalType": "string",
              "name": "ipfsHash",
              "type": "string"
            },
            {
              "internalType": "enum CredentialNFT.CredentialStatus",
              "name": "status",
              "type": "uint8"
            },
            {
              "internalType": "string",
              "name": "grade",
              "type": "string"
            }
          ],
          "internalType": "struct CredentialNFT.Credential",
          "name": "credential",
          "type": "tuple"
        }
      ],
      "stateMutability": "view",
      "type": "function"
    },
    {
      "inputs": [
        {
          "internalType": "address",
          "name": "institutionAddress",
          "type": "address"
        }
      ],
      "name": "getInstitution",
      "outputs": [
        {
          "components": [
            {
              "internalType": "string",
              "name": "name",
              "type": "string"
            },
            {
              "internalType": "string",
              "name": "registrationId",
              "type": "string"
            },
            {
              "internalType": "bool",
              "name": "isVerified",
              "type": "bool"
            },
            {
              "internalType": "uint256",
              "name": "registrationDate",
              "type": "uint256"
            },
            {
              "internalType": "uint256",
              "name": "credentialsIssued",
              "type": "uint256"
            }
          ],
          "internalType": "struct CredentialNFT.Institution",
          "name": "",
          "type": "tuple"
        }
      ],
      "stateMutability": "view",
      "type": "function"
    },
    {
      "inputs": [
        {
          "internalType": "address",
          "name": "institution",
          "type": "address"
        }
      ],
      "name": "getInstitutionCredentials",
      "outputs": [
        {
          "internalType": "uint256[]",
          "name": "",
          "type": "uint256[]"
        }
      ],
      "stateMutability": "view",
      "type": "function"
    },
    {
      "inputs": [
        {
          "internalType": "bytes32",
          "name": "role",
          "type": "bytes32"
        }
      ],
      "name": "getRoleAdmin",
      "outputs": [
        {
          "internalType": "bytes32",
          "name": "",
          "type": "bytes32"
        }
      ],
      "stateMutability": "view",
      "type": "function"
    },
    {
      "inputs": [
        {
          "internalType": "address",
          "name": "student",
          "type": "address"
        }
      ],
      "name": "getStudentCredentials",
      "outputs": [
        {
          "internalType": "uint256[]",
          "name": "",
          "type": "uint256[]"
        }
      ],
      "stateMutability": "view",
      "type": "function"
    },
    {
      "inputs": [],
      "name": "getTotalCredentials",
      "outputs": [
        {
          "internalType": "uint256",
          "name": "",
          "type": "uint256"
        }
      ],
      "stateMutability": "view",
      "type": "function"
    },
    {
      "inputs": [
        {
          "internalType": "bytes32",
          "name": "role",
          "type": "bytes32"
        },
        {
          "internalType": "address",
          "name": "account",
          "type": "address"
        }
      ],
      "name": "grantRole",
      "outputs": [],
      "stateMutability": "nonpayable",
      "type": "function"
    },
    {
      "inputs": [
        {
          "internalType": "bytes32",
          "name": "role",
          "type": "bytes32"
        },
        {
          "internalType": "address",
          "name": "account",
          "type": "address"
        }
      ],
      "name": "hasRole",
      "outputs": [
        {
          "internalType": "bool",
          "name": "",
          "type": "bool"
        }
      ],
      "stateMutability": "view",
      "type": "function"
    },
    {
      "inputs": [
        {
          "internalType": "address",
          "name": "",
          "type": "address"
        },
        {
          "internalType": "uint256",
          "name": "",
          "type": "uint256"
        }
      ],
      "name": "institutionCredentials",
      "outputs": [
        {
          "internalType": "uint256",
          "name": "",
          "type": "uint256"
        }
      ],
      "stateMutability": "view",
      "type": "function"
    },
    {
      "inputs": [
        {
          "internalType": "address",
          "name": "",
          "type": "address"
        }
      ],
      "name": "institutions",
      "outputs": [
        {
          "internalType": "string",
          "name": "name",
          "type": "string"
        },
        {
          "internalType": "string",
          "name": "registrationId",
          "type": "string"
        },
        {
          "internalType": "bool",
          "name": "isVerified",
          "type": "bool"
        },
        {
          "internalType": "uint256",
          "name": "registrationDate",
          "type": "uint256"
        },
        {
          "internalType": "uint256",
          "name": "credentialsIssued",
          "type": "uint256"
        }
      ],
      "stateMutability": "view",
      "type": "function"
    },
    {
      "inputs": [
        {
          "internalType": "address",
          "name": "owner",
          "type": "address"
        },
        {
          "internalType": "address",
          "name": "operator",
          "type": "address"
        }
      ],
      "name": "isApprovedForAll",
      "outputs": [
        {
          "internalType": "bool",
          "name": "",
          "type": "bool"
        }
      ],
      "stateMutability": "view",
      "type": "function"
    },
    {
      "inputs": [
        {
          "internalType": "address",
          "name": "institutionAddress",
          "type": "address"
        }
      ],
      "name": "isVerifiedInstitution",
      "outputs": [
        {
          "internalType": "bool",
          "name": "",
          "type": "bool"
        }
      ],
      "stateMutability": "view",
      "type": "function"
    },
    {
      "inputs": [
        {
          "internalType": "address",
          "name": "student",
          "type": "address"
        },
        {
          "internalType": "string",
          "name": "credentialType",
          "type": "string"
        },
        {
          "internalType": "string",
          "name": "courseName",
          "type": "string"
        },
        {
          "internalType": "string",
          "name": "studentName",
          "type": "string"
        },
        {
          "internalType": "string",
          "name": "studentId",
          "type": "string"
        },
        {
          "internalType": "uint256",
          "name": "expiryDate",
          "type": "uint256"
        },
        {
          "internalType": "string",
          "name": "ipfsHash",
          "type": "string"
        },
        {
          "internalType": "string",
          "name": "grade",
          "type": "string"
        },
        {
          "internalType": "string",
          "name": "metadataURI",
          "type": "string"
        }
      ],
      "name": "issueCredential",
      "outputs": [
        {
          "internalType": "uint256",
          "name": "",
          "type": "uint256"
        }
      ],
      "stateMutability": "nonpayable",
      "type": "function"
    },
    {
      "inputs": [],
      "name": "name",
      "outputs": [
        {
          "internalType": "string",
          "name": "",
          "type": "string"
        }
      ],
      "stateMutability": "view",
      "type": "function"
    },
    {
      "inputs": [
        {
          "internalType": "uint256",
          "name": "tokenId",
          "type": "uint256"
        }
      ],
      "name": "ownerOf",
      "outputs": [
        {
          "internalType": "address",
          "name": "",
          "type": "address"
        }
      ],
      "stateMutability": "view",
      "type": "function"
    },
    {
      "inputs": [
        {
          "internalType": "string",
          "name": "name",
          "type": "string"
        },
        {
          "internalType": "string",
          "name": "registrationId",
          "type": "string"
        }
      ],
      "name": "registerInstitution",
      "outputs": [],
      "stateMutability": "nonpayable",
      "type": "function"
    },
    {
      "inputs": [
        {
          "internalType": "bytes32",
          "name": "role",
          "type": "bytes32"
        },
        {
          "internalType": "address",
          "name": "callerConfirmation",
          "type": "address"
        }
      ],
      "name": "renounceRole",
      "outputs": [],
      "stateMutability": "nonpayable",
      "type": "function"
    },
    {
      "inputs": [
        {
          "internalType": "uint256",
          "name": "tokenId",
          "type": "uint256"
        }
      ],
      "name": "revokeCredential",
      "outputs": [],
      "stateMutability": "nonpayable",
      "type": "function"
    },
    {
      "inputs": [
        {
          "internalType": "address",
          "name": "institutionAddress",
          "type": "address"
        }
      ],
      "name": "revokeInstitution",
      "outputs": [],
      "stateMutability": "nonpayable",
      "type": "function"
    },
    {
      "inputs": [
        {
          "internalType": "bytes32",
          "name": "role",
          "type": "bytes32"
        },
        {
          "internalType": "address",
          "name": "account",
          "type": "address"
        }
      ],
      "name": "revokeRole",
      "outputs": [],
      "stateMutability": "nonpayable",
      "type": "function"
    },
    {
      "inputs": [
        {
          "internalType": "address",
          "name": "from",
          "type": "address"
        },
        {
          "internalType": "address",
          "name": "to",
          "type": "address"
        },
        {
          "internalType": "uint256",
          "name": "tokenId",
          "type": "uint256"
        }
      ],
      "name": "safeTransferFrom",
      "outputs": [],
      "stateMutability": "nonpayable",
      "type": "function"
    },
    {
      "inputs": [
        {
          "internalType": "address",
          "name": "from",
          "type": "address"
        },
        {
          "internalType": "address",
          "name": "to",
          "type": "address"
        },
        {
          "internalType": "uint256",
          "name": "tokenId",
          "type": "uint256"
        },
        {
          "internalType": "bytes",
          "name": "data",
          "type": "bytes"
        }
      ],
      "name": "safeTransferFrom",
      "outputs": [],
      "stateMutability": "nonpayable",
      "type": "function"
    },
    {
      "inputs": [
        {
          "internalType": "address",
          "name": "operator",
          "type": "address"
        },
        {
          "internalType": "bool",
          "name": "approved",
          "type": "bool"
        }
      ],
      "name": "setApprovalForAll",
      "outputs": [],
      "stateMutability": "nonpayable",
      "type": "function"
    },
    {
      "inputs": [
        {
          "internalType": "address",
          "name": "",
          "type": "address"
        },
        {
          "internalType": "uint256",
          "name": "",
          "type": "uint256"
        }
      ],
      "name": "studentCredentials",
      "outputs": [
        {
          "internalType": "uint256",
          "name": "",
          "type": "uint256"
        }
      ],
      "stateMutability": "view",
      "type": "function"
    },
    {
      "inputs": [
        {
          "internalType": "bytes4",
          "name": "interfaceId",
          "type": "bytes4"
        }
      ],
      "name": "supportsInterface",
      "outputs": [
        {
          "internalType": "bool",
          "name": "",
          "type": "bool"
        }
      ],
      "stateMutability": "view",
      "type": "function"
    },
    {
      "inputs": [],
      "name": "symbol",
      "outputs": [
        {
          "internalType": "string",
          "name": "",
          "type": "string"
        }
      ],
      "stateMutability": "view",
      "type": "function"
    },
    {
      "inputs": [
        {
          "internalType": "uint256",
          "name": "tokenId",
          "type": "uint256"
        }
      ],
      "name": "tokenURI",
      "outputs": [
        {
          "internalType": "string",
          "name": "",
          "type": "string"
        }
      ],
      "stateMutability": "view",
      "type": "function"
    },
    {
      "inputs": [
        {
          "internalType": "address",
          "name": "from",
          "type": "address"
        },
        {
          "internalType": "address",
          "name": "to",
          "type": "address"
        },
        {
          "internalType": "uint256",
          "name": "tokenId",
          "type": "uint256"
        }
      ],
      "name": "transferFrom",
      "outputs": [],
      "stateMutability": "nonpayable",
      "type": "function"
    },
    {
      "inputs": [
        {
          "internalType": "uint256",
          "name": "tokenId",
          "type": "uint256"
        }
      ],
      "name": "verifyCredential",
      "outputs": [
        {
          "internalType": "bool",
          "name": "isValid",
          "type": "bool"
        },
        {
          "components": [
            {
              "internalType": "uint256",
              "name": "tokenId",
              "type": "uint256"
            },
            {
              "internalType": "address",
              "name": "institution",
              "type": "address"
            },
            {
              "internalType": "address",
              "name": "student",
              "type": "address"
            },
            {
              "internalType": "string",
              "name": "credentialType",
              "type": "string"
            },
            {
              "internalType": "string",
              "name": "courseName",
              "type": "string"
            },
            {
              "internalType": "string",
              "name": "studentName",
              "type": "string"
            },
            {
              "internalType": "string",
              "name": "studentId",
              "type": "string"
            },
            {
              "internalType": "uint256",
              "name": "issueDate",
              "type": "uint256"
            },
            {
              "internalType": "uint256",
              "name": "expiryDate",
              "type": "uint256"
            },
            {
              "internalType": "string",
              "name": "ipfsHash",
              "type": "string"
            },
            {
              "internalType": "enum CredentialNFT.CredentialStatus",
              "name": "status",
              "type": "uint8"
            },
            {
              "internalType": "string",
              "name": "grade",
              "type": "string"
            }
          ],
          "internalType": "struct CredentialNFT.Credential",
          "name": "credential",
          "type": "tuple"
        },
        {
          "components": [
            {
              "internalType": "string",
              "name": "name",
              "type": "string"
            },
            {
              "internalType": "string",
              "name": "registrationId",
              "type": "string"
            },
            {
              "internalType": "bool",
              "name": "isVerified",
              "type": "bool"
            },
            {
              "internalType": "uint256",
              "name": "registrationDate",
              "type": "uint256"
            },
            {
              "internalType": "uint256",
              "name": "credentialsIssued",
              "type": "uint256"
            }
          ],
          "internalType": "struct CredentialNFT.Institution",
          "name": "institution",
          "type": "tuple"
        }
      ],
      "stateMutability": "nonpayable",
      "type": "function"
    },
    {
      "inputs": [
        {
          "internalType": "address",
          "name": "institutionAddress",
          "type": "address"
        }
      ],
      "name": "verifyInstitution",
      "outputs": [],
      "stateMutability": "nonpayable",
      "type": "function"
    }
  ],
  "bytecode": "0x60806040523480156200001157600080fd5b506040518060400160405280601781526020017f43657274696679436861696e2043726564656e7469616c0000000000000000008152506040518060400160405280600481526020016310d1549560e21b815250816000908162000076919062000223565b50600162000085828262000223565b506200009791506000905033620000cb565b50620000c47fa49807205ce4d355092ef5a8a18f56e8913cf4a201fbe287825b095693c2177533620000cb565b50620002ef565b60008281526007602090815260408083206001600160a01b038516845290915281205460ff16620001745760008381526007602090815260408083206001600160a01b03861684529091529020805460ff191660011790556200012b3390565b6001600160a01b0316826001600160a01b0316847f2f8788117e7eff1d82e926ec794901d17c78024a50270940304540a733656f0d60405160405180910390a450600162000178565b5060005b92915050565b634e487b7160e01b600052604160045260246000fd5b600181811c90821680620001a957607f821691505b602082108103620001ca57634e487b7160e01b600052602260045260246000fd5b50919050565b601f8211156200021e57600081815260208120601f850160051c81016020861015620001f95750805b601f850160051c820191505b818110156200021a5782815560010162000205565b5050505b505050565b81516001600160401b038111156200023f576200023f6200017e565b620002578162000250845462000194565b84620001d0565b602080601f8311600181146200028f5760008415620002765750858301515b600019600386901b1c1916600185901b1785556200021a565b600085815260208120601f198616915b82811015620002c0578886015182559484019460019091019084016200029f565b5085821015620002df5787850151600019600388901b60f8161c191681555b5050505050600190811b01905550565b61408180620002ff6000396000f3fe608060405234801561001057600080fd5b506004361061023d5760003560e01c8063711992361161013b578063b7d731c1116100b8578063e0574e3f1161007c578063e0574e3f1461058b578063e985e9c5146105b6578063f1470a35146105c9578063f2a91b1c146105d1578063fb664e0c146105f357600080fd5b8063b7d731c11461051e578063b88d4fde1461053f578063c6b5c5cc14610552578063c87b56dd14610565578063d547741f1461057857600080fd5b806395d89b41116100ff57806395d89b41146104a85780639e9b738a146104b0578063a217fddf146104df578063a22cb465146104e7578063b2d9767f146104fa57600080fd5b8063711992361461041b57806375b238fc1461043b578063763bdfa9146104625780638dd18d2d1461047557806391d148541461049557600080fd5b806323b872dd116101c957806342842e0e1161018d57806342842e0e146103bc5780634e83e59a146103cf57806355bedcbb146103e25780636352211e146103f557806370a082311461040857600080fd5b806323b872dd1461034d578063248a9ca3146103605780632f2ff15d1461038357806336568abe146103965780633e168516146103a957600080fd5b80630dd308cd116102105780630dd308cd146102bf5780631b87278d146102e05780631b929c21146102f35780631c67494e1461031a578063218cdc321461032d57600080fd5b806301ffc9a71461024257806306fdde031461026a578063081812fc1461027f578063095ea7b3146102aa575b600080fd5b6102556102503660046135d3565b61061e565b60405190151581526020015b60405180910390f35b61027261062f565b6040516102619190613640565b61029261028d366004613653565b6106c1565b6040516001600160a01b039091168152602001610261565b6102bd6102b8366004613688565b6106ea565b005b6102d26102cd366004613688565b6106f9565b604051908152602001610261565b6102bd6102ee366004613653565b61072a565b6102d27f01f18e249044142f95a61b39bad5f99f3c70699c83bb85a1ad87fe9e68bd85d181565b6102bd6103283660046136b2565b6108a1565b61034061033b3660046136b2565b6109cb565b60405161026191906136cd565b6102bd61035b366004613711565b610a37565b6102d261036e366004613653565b60009081526007602052604090206001015490565b6102bd61039136600461374d565b610ac2565b6102bd6103a436600461374d565b610ae7565b6102bd6103b73660046136b2565b610b1f565b6102bd6103ca366004613711565b610cb3565b6103406103dd3660046136b2565b610cce565b6102d26103f0366004613688565b610d38565b610292610403366004613653565b610d54565b6102d26104163660046136b2565b610d5f565b61042e6104293660046136b2565b610da7565b60405161026191906137d4565b6102d27fa49807205ce4d355092ef5a8a18f56e8913cf4a201fbe287825b095693c2177581565b6102d2610470366004613893565b610f4b565b610488610483366004613653565b611433565b6040516102619190613b11565b6102556104a336600461374d565b61187a565b6102726118a5565b6102556104be3660046136b2565b6001600160a01b03166000908152600a602052604090206002015460ff1690565b6102d2600081565b6102bd6104f5366004613b24565b6118b4565b61050d6105083660046136b2565b6118bf565b604051610261959493929190613b60565b61053161052c366004613ba3565b611a03565b604051610261929190613bd8565b6102bd61054d366004613bf3565b611e51565b6102bd610560366004613c6f565b611e69565b610272610573366004613653565b612026565b6102bd61058636600461374d565b612031565b61059e610599366004613653565b612056565b6040516102619c9b9a99989796959493929190613cd3565b6102556105c4366004613d9f565b6123f6565b6008546102d2565b6105e46105df366004613653565b612424565b60405161026193929190613dc9565b6102d2610601366004613ba3565b8051602081830181018051600d8252928201919093012091525481565b600061062982612aaa565b92915050565b60606000805461063e90613df6565b80601f016020809104026020016040519081016040528092919081815260200182805461066a90613df6565b80156106b75780601f1061068c576101008083540402835291602001916106b7565b820191906000526020600020905b81548152906001019060200180831161069a57829003601f168201915b5050505050905090565b60006106cc82612acf565b506000828152600460205260409020546001600160a01b0316610629565b6106f5828233612b08565b5050565b600b602052816000526040600020818154811061071557600080fd5b90600052602060002001600091509150505481565b60008181526002602052604090205481906001600160a01b03166107695760405162461bcd60e51b815260040161076090613e2a565b60405180910390fd5b6000828152600960205260409020600101546001600160a01b031633146107de5760405162461bcd60e51b815260206004820152602360248201527f4f6e6c792069737375696e6720696e737469747574696f6e2063616e207265766044820152626f6b6560e81b6064820152608401610760565b6000828152600960205260408120600a015460ff166002811115610804576108046139c9565b146108495760405162461bcd60e51b815260206004820152601560248201527443726564656e7469616c206e6f742061637469766560581b6044820152606401610760565b600082815260096020908152604091829020600a01805460ff191660011790559051428152339184917f938d88ce0186b371ae88271ba50d0551b7160c89aa3c418a36776eb505654342910160405180910390a35050565b7fa49807205ce4d355092ef5a8a18f56e8913cf4a201fbe287825b095693c217756108cb81612b15565b6001600160a01b0382166000908152600a602052604090206002015460ff166109365760405162461bcd60e51b815260206004820152601860248201527f496e737469747574696f6e206e6f7420766572696669656400000000000000006044820152606401610760565b6001600160a01b0382166000908152600a60205260409020600201805460ff191690556109837f01f18e249044142f95a61b39bad5f99f3c70699c83bb85a1ad87fe9e68bd85d183612b22565b50816001600160a01b03167f7693c5297d56165e0b840d4eeca43a7aaa87f34e969274d7add9dfa2d2f12467426040516109bf91815260200190565b60405180910390a25050565b6001600160a01b0381166000908152600b6020908152604091829020805483518184028101840190945280845260609392830182828015610a2b57602002820191906000526020600020905b815481526020019060010190808311610a17575b50505050509050919050565b6001600160a01b038216610a6157604051633250574960e11b815260006004820152602401610760565b6000610a6e838333612b97565b9050836001600160a01b0316816001600160a01b031614610abc576040516364283d7b60e01b81526001600160a01b0380861660048301526024820184905282166044820152606401610760565b50505050565b600082815260076020526040902060010154610add81612b15565b610abc8383612c90565b6001600160a01b0381163314610b105760405163334bd91960e11b815260040160405180910390fd5b610b1a8282612b22565b505050565b7fa49807205ce4d355092ef5a8a18f56e8913cf4a201fbe287825b095693c21775610b4981612b15565b6001600160a01b0382166000908152600a602052604081208054610b6c90613df6565b905011610bbb5760405162461bcd60e51b815260206004820152601a60248201527f496e737469747574696f6e206e6f7420726567697374657265640000000000006044820152606401610760565b6001600160a01b0382166000908152600a602052604090206002015460ff1615610c275760405162461bcd60e51b815260206004820152601c60248201527f496e737469747574696f6e20616c7265616479207665726966696564000000006044820152606401610760565b6001600160a01b0382166000908152600a60205260409020600201805460ff19166001179055610c777f01f18e249044142f95a61b39bad5f99f3c70699c83bb85a1ad87fe9e68bd85d183612c90565b50816001600160a01b03167f2eb141cd75246ffd459557671e5c3b4e75953b62fe3cacc065973e6788b2370d426040516109bf91815260200190565b610b1a83838360405180602001604052806000815250611e51565b6001600160a01b0381166000908152600c6020908152604091829020805483518184028101840190945280845260609392830182828015610a2b5760200282019190600052602060002090815481526020019060010190808311610a175750505050509050919050565b600c602052816000526040600020818154811061071557600080fd5b600061062982612acf565b60006001600160a01b038216610d8b576040516322718ad960e21b815260006004820152602401610760565b506001600160a01b031660009081526003602052604090205490565b610ddb6040518060a00160405280606081526020016060815260200160001515815260200160008152602001600081525090565b6001600160a01b0382166000908152600a602052604090819020815160a08101909252805482908290610e0d90613df6565b80601f0160208091040260200160405190810160405280929190818152602001828054610e3990613df6565b8015610e865780601f10610e5b57610100808354040283529160200191610e86565b820191906000526020600020905b815481529060010190602001808311610e6957829003601f168201915b50505050508152602001600182018054610e9f90613df6565b80601f0160208091040260200160405190810160405280929190818152602001828054610ecb90613df6565b8015610f185780601f10610eed57610100808354040283529160200191610f18565b820191906000526020600020905b815481529060010190602001808311610efb57829003601f168201915b5050509183525050600282015460ff16151560208201526003820154604082015260049091015460609091015292915050565b336000908152600a602052604081206002015460ff16610fad5760405162461bcd60e51b815260206004820152601a60248201527f4e6f74206120766572696669656420696e737469747574696f6e0000000000006044820152606401610760565b6001600160a01b038a166110035760405162461bcd60e51b815260206004820152601760248201527f496e76616c69642073747564656e7420616464726573730000000000000000006044820152606401610760565b60008951116110545760405162461bcd60e51b815260206004820152601860248201527f43726564656e7469616c207479706520726571756972656400000000000000006044820152606401610760565b600088511161109c5760405162461bcd60e51b815260206004820152601460248201527310dbdd5c9cd9481b985b59481c995c5d5a5c995960621b6044820152606401610760565b60008751116110e55760405162461bcd60e51b815260206004820152601560248201527414dd1d59195b9d081b985b59481c995c5d5a5c9959605a1b6044820152606401610760565b600084511161112b5760405162461bcd60e51b815260206004820152601260248201527112541194c81a185cda081c995c5d5a5c995960721b6044820152606401610760565b600d8460405161113b9190613e61565b9081526020016040518091039020546000146111995760405162461bcd60e51b815260206004820152601960248201527f43726564656e7469616c20616c726561647920657869737473000000000000006044820152606401610760565b600880549060006111a983613e7d565b90915550506008546111bb8b82612d1c565b6111c58184612d36565b604051806101800160405280828152602001336001600160a01b031681526020018c6001600160a01b031681526020018b81526020018a815260200189815260200188815260200142815260200187815260200186815260200160006002811115611232576112326139c9565b8152602090810186905260008381526009825260409081902083518155918301516001830180546001600160a01b03199081166001600160a01b03938416179091559184015160028401805490931691161790556060820151600382019061129a9082613eea565b50608082015160048201906112af9082613eea565b5060a082015160058201906112c49082613eea565b5060c082015160068201906112d99082613eea565b5060e08201516007820155610100820151600882015561012082015160098201906113049082613eea565b50610140820151600a8201805460ff19166001836002811115611329576113296139c9565b0217905550610160820151600b8201906113439082613eea565b5050506001600160a01b038b166000908152600b6020908152604080832080546001818101835591855283852001859055338452600c83528184208054918201815584529190922001829055518190600d906113a0908890613e61565b908152604080516020928190038301902092909255336000908152600a9091529081206004018054916113d283613e7d565b91905055508a6001600160a01b0316336001600160a01b0316827f3d1a51092757ebe14b766ed85ed83ef6b8eaee13cc78343bb239f21dc0d0feed8d4260405161141d929190613faa565b60405180910390a49a9950505050505050505050565b61143b613539565b60008281526002602052604090205482906001600160a01b03166114715760405162461bcd60e51b815260040161076090613e2a565b6000838152600960209081526040918290208251610180810184528154815260018201546001600160a01b03908116938201939093526002820154909216928201929092526003820180549192916060840191906114ce90613df6565b80601f01602080910402602001604051908101604052809291908181526020018280546114fa90613df6565b80156115475780601f1061151c57610100808354040283529160200191611547565b820191906000526020600020905b81548152906001019060200180831161152a57829003601f168201915b5050505050815260200160048201805461156090613df6565b80601f016020809104026020016040519081016040528092919081815260200182805461158c90613df6565b80156115d95780601f106115ae576101008083540402835291602001916115d9565b820191906000526020600020905b8154815290600101906020018083116115bc57829003601f168201915b505050505081526020016005820180546115f290613df6565b80601f016020809104026020016040519081016040528092919081815260200182805461161e90613df6565b801561166b5780601f106116405761010080835404028352916020019161166b565b820191906000526020600020905b81548152906001019060200180831161164e57829003601f168201915b5050505050815260200160068201805461168490613df6565b80601f01602080910402602001604051908101604052809291908181526020018280546116b090613df6565b80156116fd5780601f106116d2576101008083540402835291602001916116fd565b820191906000526020600020905b8154815290600101906020018083116116e057829003601f168201915b50505050508152602001600782015481526020016008820154815260200160098201805461172a90613df6565b80601f016020809104026020016040519081016040528092919081815260200182805461175690613df6565b80156117a35780601f10611778576101008083540402835291602001916117a3565b820191906000526020600020905b81548152906001019060200180831161178657829003601f168201915b5050509183525050600a82015460209091019060ff1660028111156117ca576117ca6139c9565b60028111156117db576117db6139c9565b8152602001600b820180546117ef90613df6565b80601f016020809104026020016040519081016040528092919081815260200182805461181b90613df6565b80156118685780601f1061183d57610100808354040283529160200191611868565b820191906000526020600020905b81548152906001019060200180831161184b57829003601f168201915b50505050508152505091505b50919050565b60009182526007602090815260408084206001600160a01b0393909316845291905290205460ff1690565b60606001805461063e90613df6565b6106f5338383612d86565b600a602052600090815260409020805481906118da90613df6565b80601f016020809104026020016040519081016040528092919081815260200182805461190690613df6565b80156119535780601f1061192857610100808354040283529160200191611953565b820191906000526020600020905b81548152906001019060200180831161193657829003601f168201915b50505050509080600101805461196890613df6565b80601f016020809104026020016040519081016040528092919081815260200182805461199490613df6565b80156119e15780601f106119b6576101008083540402835291602001916119e1565b820191906000526020600020905b8154815290600101906020018083116119c457829003601f168201915b5050505060028301546003840154600490940154929360ff9091169290915085565b6000611a0d613539565b6000600d84604051611a1f9190613e61565b908152602001604051809103902054905080600003611a42576000925050915091565b600081815260096020908152604091829020825161018081018452815481526001828101546001600160a01b03908116948301949094526002830154909316938101939093526003810180549293919283916060840191611aa290613df6565b80601f0160208091040260200160405190810160405280929190818152602001828054611ace90613df6565b8015611b1b5780601f10611af057610100808354040283529160200191611b1b565b820191906000526020600020905b815481529060010190602001808311611afe57829003601f168201915b50505050508152602001600482018054611b3490613df6565b80601f0160208091040260200160405190810160405280929190818152602001828054611b6090613df6565b8015611bad5780601f10611b8257610100808354040283529160200191611bad565b820191906000526020600020905b815481529060010190602001808311611b9057829003601f168201915b50505050508152602001600582018054611bc690613df6565b80601f0160208091040260200160405190810160405280929190818152602001828054611bf290613df6565b8015611c3f5780601f10611c1457610100808354040283529160200191611c3f565b820191906000526020600020905b815481529060010190602001808311611c2257829003601f168201915b50505050508152602001600682018054611c5890613df6565b80601f0160208091040260200160405190810160405280929190818152602001828054611c8490613df6565b8015611cd15780601f10611ca657610100808354040283529160200191611cd1565b820191906000526020600020905b815481529060010190602001808311611cb457829003601f168201915b505050505081526020016007820154815260200160088201548152602001600982018054611cfe90613df6565b80601f0160208091040260200160405190810160405280929190818152602001828054611d2a90613df6565b8015611d775780601f10611d4c57610100808354040283529160200191611d77565b820191906000526020600020905b815481529060010190602001808311611d5a57829003601f168201915b5050509183525050600a82015460209091019060ff166002811115611d9e57611d9e6139c9565b6002811115611daf57611daf6139c9565b8152602001600b82018054611dc390613df6565b80601f0160208091040260200160405190810160405280929190818152602001828054611def90613df6565b8015611e3c5780601f10611e1157610100808354040283529160200191611e3c565b820191906000526020600020905b815481529060010190602001808311611e1f57829003601f168201915b50505050508152505090509250925050915091565b611e5c848484610a37565b610abc3385858585612e25565b336000908152600a602052604090208054611e8390613df6565b159050611ed25760405162461bcd60e51b815260206004820152601e60248201527f496e737469747574696f6e20616c7265616479207265676973746572656400006044820152606401610760565b6000825111611f1a5760405162461bcd60e51b81526020600482015260146024820152734e616d652063616e6e6f7420626520656d70747960601b6044820152606401610760565b6000815111611f6b5760405162461bcd60e51b815260206004820152601f60248201527f526567697374726174696f6e2049442063616e6e6f7420626520656d707479006044820152606401610760565b6040805160a0810182528381526020808201849052600082840181905242606084015260808301819052338152600a9091529190912081518190611faf9082613eea565b5060208201516001820190611fc49082613eea565b5060408281015160028301805460ff1916911515919091179055606083015160038301556080909201516004909101555133907f7c0f5cc09780e7fbbb9700dc48f49cdadcdf5d8c8a674b8a8725af30071dc82f906109bf9085904290613faa565b606061062982612f50565b60008281526007602052604090206001015461204c81612b15565b610abc8383612b22565b600960205260009081526040902080546001820154600283015460038401805493946001600160a01b0393841694939092169261209290613df6565b80601f01602080910402602001604051908101604052809291908181526020018280546120be90613df6565b801561210b5780601f106120e05761010080835404028352916020019161210b565b820191906000526020600020905b8154815290600101906020018083116120ee57829003601f168201915b50505050509080600401805461212090613df6565b80601f016020809104026020016040519081016040528092919081815260200182805461214c90613df6565b80156121995780601f1061216e57610100808354040283529160200191612199565b820191906000526020600020905b81548152906001019060200180831161217c57829003601f168201915b5050505050908060050180546121ae90613df6565b80601f01602080910402602001604051908101604052809291908181526020018280546121da90613df6565b80156122275780601f106121fc57610100808354040283529160200191612227565b820191906000526020600020905b81548152906001019060200180831161220a57829003601f168201915b50505050509080600601805461223c90613df6565b80601f016020809104026020016040519081016040528092919081815260200182805461226890613df6565b80156122b55780601f1061228a576101008083540402835291602001916122b5565b820191906000526020600020905b81548152906001019060200180831161229857829003601f168201915b5050505050908060070154908060080154908060090180546122d690613df6565b80601f016020809104026020016040519081016040528092919081815260200182805461230290613df6565b801561234f5780601f106123245761010080835404028352916020019161234f565b820191906000526020600020905b81548152906001019060200180831161233257829003601f168201915b505050600a840154600b85018054949560ff90921694919350915061237390613df6565b80601f016020809104026020016040519081016040528092919081815260200182805461239f90613df6565b80156123ec5780601f106123c1576101008083540402835291602001916123ec565b820191906000526020600020905b8154815290600101906020018083116123cf57829003601f168201915b505050505090508c565b6001600160a01b03918216600090815260056020908152604080832093909416825291909152205460ff1690565b600061242e613539565b6124626040518060a00160405280606081526020016060815260200160001515815260200160008152602001600081525090565b60008481526002602052604090205484906001600160a01b03166124985760405162461bcd60e51b815260040161076090613e2a565b6000858152600960209081526040918290208251610180810184528154815260018201546001600160a01b03908116938201939093526002820154909216928201929092526003820180549192916060840191906124f590613df6565b80601f016020809104026020016040519081016040528092919081815260200182805461252190613df6565b801561256e5780601f106125435761010080835404028352916020019161256e565b820191906000526020600020905b81548152906001019060200180831161255157829003601f168201915b5050505050815260200160048201805461258790613df6565b80601f01602080910402602001604051908101604052809291908181526020018280546125b390613df6565b80156126005780601f106125d557610100808354040283529160200191612600565b820191906000526020600020905b8154815290600101906020018083116125e357829003601f168201915b5050505050815260200160058201805461261990613df6565b80601f016020809104026020016040519081016040528092919081815260200182805461264590613df6565b80156126925780601f1061266757610100808354040283529160200191612692565b820191906000526020600020905b81548152906001019060200180831161267557829003601f168201915b505050505081526020016006820180546126ab90613df6565b80601f01602080910402602001604051908101604052809291908181526020018280546126d790613df6565b80156127245780601f106126f957610100808354040283529160200191612724565b820191906000526020600020905b81548152906001019060200180831161270757829003601f168201915b50505050508152602001600782015481526020016008820154815260200160098201805461275190613df6565b80601f016020809104026020016040519081016040528092919081815260200182805461277d90613df6565b80156127ca5780601f1061279f576101008083540402835291602001916127ca565b820191906000526020600020905b8154815290600101906020018083116127ad57829003601f168201915b5050509183525050600a82015460209091019060ff1660028111156127f1576127f16139c9565b6002811115612802576128026139c9565b8152602001600b8201805461281690613df6565b80601f016020809104026020016040519081016040528092919081815260200182805461284290613df6565b801561288f5780601f106128645761010080835404028352916020019161288f565b820191906000526020600020905b81548152906001019060200180831161287257829003601f168201915b5050505050815250509250600a600084602001516001600160a01b03166001600160a01b031681526020019081526020016000206040518060a00160405290816000820180546128de90613df6565b80601f016020809104026020016040519081016040528092919081815260200182805461290a90613df6565b80156129575780601f1061292c57610100808354040283529160200191612957565b820191906000526020600020905b81548152906001019060200180831161293a57829003601f168201915b5050505050815260200160018201805461297090613df6565b80601f016020809104026020016040519081016040528092919081815260200182805461299c90613df6565b80156129e95780601f106129be576101008083540402835291602001916129e9565b820191906000526020600020905b8154815290600101906020018083116129cc57829003601f168201915b5050509183525050600282015460ff161515602082015260038201546040820152600490910154606090910152915060008361014001516002811115612a3157612a316139c9565b148015612a3f575081604001515b8015612a5c57506101008301511580612a5c575042836101000151115b9350336001600160a01b0316857f4ad495952cc29d14c7885ddf8bb8c4aa4ae66b68ed30f4bd69f01ffe12f90cb442604051612a9a91815260200190565b60405180910390a3509193909250565b60006001600160e01b03198216637965db0b60e01b1480610629575061062982613061565b6000818152600260205260408120546001600160a01b03168061062957604051637e27328960e01b815260048101849052602401610760565b610b1a8383836001613086565b612b1f813361318c565b50565b6000612b2e838361187a565b15612b8f5760008381526007602090815260408083206001600160a01b0386168085529252808320805460ff1916905551339286917ff6391f5c32d9c69d2a47ea670b442974b53935d1edc7fd64eb21e047a839171b9190a4506001610629565b506000610629565b6000828152600260205260408120546001600160a01b0390811690831615612bc457612bc48184866131c5565b6001600160a01b03811615612c0257612be1600085600080613086565b6001600160a01b038116600090815260036020526040902080546000190190555b6001600160a01b03851615612c31576001600160a01b0385166000908152600360205260409020805460010190555b60008481526002602052604080822080546001600160a01b0319166001600160a01b0389811691821790925591518793918516917fddf252ad1be2c89b69c2b068fc378daa952ba7f163c4a11628f55a4df523b3ef91a4949350505050565b6000612c9c838361187a565b612b8f5760008381526007602090815260408083206001600160a01b03861684529091529020805460ff19166001179055612cd43390565b6001600160a01b0316826001600160a01b0316847f2f8788117e7eff1d82e926ec794901d17c78024a50270940304540a733656f0d60405160405180910390a4506001610629565b6106f5828260405180602001604052806000815250613229565b6000828152600660205260409020612d4e8282613eea565b506040518281527ff8e1a15aba9398e019f0b49df1a4fde98ee17ae345cb5f6b5e2c27f5033e8ce79060200160405180910390a15050565b6001600160a01b038216612db857604051630b61174360e31b81526001600160a01b0383166004820152602401610760565b6001600160a01b03838116600081815260056020908152604080832094871680845294825291829020805460ff191686151590811790915591519182527f17307eab39ab6107e8899845ad3d59bd9653f200f220920489ca2b5937696c31910160405180910390a3505050565b6001600160a01b0383163b15612f4957604051630a85bd0160e11b81526001600160a01b0384169063150b7a0290612e67908890889087908790600401613fcc565b6020604051808303816000875af1925050508015612ea2575060408051601f3d908101601f19168201909252612e9f91810190613fff565b60015b612f0b573d808015612ed0576040519150601f19603f3d011682016040523d82523d6000602084013e612ed5565b606091505b508051600003612f0357604051633250574960e11b81526001600160a01b0385166004820152602401610760565b805160208201fd5b6001600160e01b03198116630a85bd0160e11b14612f4757604051633250574960e11b81526001600160a01b0385166004820152602401610760565b505b5050505050565b6060612f5b82612acf565b5060008281526006602052604081208054612f7590613df6565b80601f0160208091040260200160405190810160405280929190818152602001828054612fa190613df6565b8015612fee5780601f10612fc357610100808354040283529160200191612fee565b820191906000526020600020905b815481529060010190602001808311612fd157829003601f168201915b50505050509050600061300c60408051602081019091526000815290565b9050805160000361301e575092915050565b81511561305057808260405160200161303892919061401c565b60405160208183030381529060405292505050919050565b61305984613241565b949350505050565b60006001600160e01b03198216632483248360e11b14806106295750610629826132b6565b808061309a57506001600160a01b03821615155b1561315c5760006130aa84612acf565b90506001600160a01b038316158015906130d65750826001600160a01b0316816001600160a01b031614155b80156130e957506130e781846123f6565b155b156131125760405163a9fbf51f60e01b81526001600160a01b0384166004820152602401610760565b811561315a5783856001600160a01b0316826001600160a01b03167f8c5be1e5ebec7d5bd14f71427d1e84f3dd0314c0f7b2291e5b200ac8c7c3b92560405160405180910390a45b505b5050600090815260046020526040902080546001600160a01b0319166001600160a01b0392909216919091179055565b613196828261187a565b6106f55760405163e2517d3f60e01b81526001600160a01b038216600482015260248101839052604401610760565b6131d0838383613306565b610b1a576001600160a01b0383166131fe57604051637e27328960e01b815260048101829052602401610760565b60405163177e802f60e01b81526001600160a01b038316600482015260248101829052604401610760565b6132338383613369565b610b1a336000858585612e25565b606061324c82612acf565b50600061326460408051602081019091526000815290565b9050600081511161328457604051806020016040528060008152506132af565b8061328e846133ce565b60405160200161329f92919061401c565b6040516020818303038152906040525b9392505050565b60006001600160e01b031982166380ac58cd60e01b14806132e757506001600160e01b03198216635b5e139f60e01b145b8061062957506301ffc9a760e01b6001600160e01b0319831614610629565b60006001600160a01b038316158015906130595750826001600160a01b0316846001600160a01b03161480613340575061334084846123f6565b806130595750506000908152600460205260409020546001600160a01b03908116911614919050565b6001600160a01b03821661339357604051633250574960e11b815260006004820152602401610760565b60006133a183836000612b97565b90506001600160a01b03811615610b1a576040516339e3563760e11b815260006004820152602401610760565b606060006133db83613461565b600101905060008167ffffffffffffffff8111156133fb576133fb6137e7565b6040519080825280601f01601f191660200182016040528015613425576020820181803683370190505b5090508181016020015b600019016f181899199a1a9b1b9c1cb0b131b232b360811b600a86061a8153600a850494508461342f57509392505050565b60008072184f03e93ff9f4daa797ed6e38ed64bf6a1f0160401b83106134a05772184f03e93ff9f4daa797ed6e38ed64bf6a1f0160401b830492506040015b6d04ee2d6d415b85acef810000000083106134cc576d04ee2d6d415b85acef8100000000830492506020015b662386f26fc1000083106134ea57662386f26fc10000830492506010015b6305f5e1008310613502576305f5e100830492506008015b612710831061351657612710830492506004015b60648310613528576064830492506002015b600a83106106295760010192915050565b6040518061018001604052806000815260200160006001600160a01b0316815260200160006001600160a01b0316815260200160608152602001606081526020016060815260200160608152602001600081526020016000815260200160608152602001600060028111156135b0576135b06139c9565b8152602001606081525090565b6001600160e01b031981168114612b1f57600080fd5b6000602082840312156135e557600080fd5b81356132af816135bd565b60005b8381101561360b5781810151838201526020016135f3565b50506000910152565b6000815180845261362c8160208601602086016135f0565b601f01601f19169290920160200192915050565b6020815260006132af6020830184613614565b60006020828403121561366557600080fd5b5035919050565b80356001600160a01b038116811461368357600080fd5b919050565b6000806040838503121561369b57600080fd5b6136a48361366c565b946020939093013593505050565b6000602082840312156136c457600080fd5b6132af8261366c565b6020808252825182820181905260009190848201906040850190845b81811015613705578351835292840192918401916001016136e9565b50909695505050505050565b60008060006060848603121561372657600080fd5b61372f8461366c565b925061373d6020850161366c565b9150604084013590509250925092565b6000806040838503121561376057600080fd5b823591506137706020840161366c565b90509250929050565b6000815160a0845261378e60a0850182613614565b9050602083015184820360208601526137a78282613614565b91505060408301511515604085015260608301516060850152608083015160808501528091505092915050565b6020815260006132af6020830184613779565b634e487b7160e01b600052604160045260246000fd5b600067ffffffffffffffff80841115613818576138186137e7565b604051601f8501601f19908116603f01168101908282118183101715613840576138406137e7565b8160405280935085815286868601111561385957600080fd5b858560208301376000602087830101525050509392505050565b600082601f83011261388457600080fd5b6132af838335602085016137fd565b60008060008060008060008060006101208a8c0312156138b257600080fd5b6138bb8a61366c565b985060208a013567ffffffffffffffff808211156138d857600080fd5b6138e48d838e01613873565b995060408c01359150808211156138fa57600080fd5b6139068d838e01613873565b985060608c013591508082111561391c57600080fd5b6139288d838e01613873565b975060808c013591508082111561393e57600080fd5b61394a8d838e01613873565b965060a08c0135955060c08c013591508082111561396757600080fd5b6139738d838e01613873565b945060e08c013591508082111561398957600080fd5b6139958d838e01613873565b93506101008c01359150808211156139ac57600080fd5b506139b98c828d01613873565b9150509295985092959850929598565b634e487b7160e01b600052602160045260246000fd5b600381106139fd57634e487b7160e01b600052602160045260246000fd5b9052565b6000610180825184526020830151613a2460208601826001600160a01b03169052565b506040830151613a3f60408601826001600160a01b03169052565b506060830151816060860152613a5782860182613614565b91505060808301518482036080860152613a718282613614565b91505060a083015184820360a0860152613a8b8282613614565b91505060c083015184820360c0860152613aa58282613614565b91505060e083015160e08501526101008084015181860152506101208084015185830382870152613ad68382613614565b9250505061014080840151613aed828701826139df565b50506101608084015185830382870152613b078382613614565b9695505050505050565b6020815260006132af6020830184613a01565b60008060408385031215613b3757600080fd5b613b408361366c565b915060208301358015158114613b5557600080fd5b809150509250929050565b60a081526000613b7360a0830188613614565b8281036020840152613b858188613614565b95151560408401525050606081019290925260809091015292915050565b600060208284031215613bb557600080fd5b813567ffffffffffffffff811115613bcc57600080fd5b61305984828501613873565b82151581526040602082015260006130596040830184613a01565b60008060008060808587031215613c0957600080fd5b613c128561366c565b9350613c206020860161366c565b925060408501359150606085013567ffffffffffffffff811115613c4357600080fd5b8501601f81018713613c5457600080fd5b613c63878235602084016137fd565b91505092959194509250565b60008060408385031215613c8257600080fd5b823567ffffffffffffffff80821115613c9a57600080fd5b613ca686838701613873565b93506020850135915080821115613cbc57600080fd5b50613cc985828601613873565b9150509250929050565b8c81526001600160a01b038c16602082015260006101806001600160a01b038d166040840152806060840152613d0b8184018d613614565b90508281036080840152613d1f818c613614565b905082810360a0840152613d33818b613614565b905082810360c0840152613d47818a613614565b90508760e084015286610100840152828103610120840152613d698187613614565b9050613d796101408401866139df565b828103610160840152613d8c8185613614565b9f9e505050505050505050505050505050565b60008060408385031215613db257600080fd5b613dbb8361366c565b91506137706020840161366c565b8315158152606060208201526000613de46060830185613a01565b8281036040840152613b078185613779565b600181811c90821680613e0a57607f821691505b60208210810361187457634e487b7160e01b600052602260045260246000fd5b60208082526019908201527f43726564656e7469616c20646f6573206e6f7420657869737400000000000000604082015260600190565b60008251613e738184602087016135f0565b9190910192915050565b600060018201613e9d57634e487b7160e01b600052601160045260246000fd5b5060010190565b601f821115610b1a57600081815260208120601f850160051c81016020861015613ecb5750805b601f850160051c820191505b81811015612f4757828155600101613ed7565b815167ffffffffffffffff811115613f0457613f046137e7565b613f1881613f128454613df6565b84613ea4565b602080601f831160018114613f4d5760008415613f355750858301515b600019600386901b1c1916600185901b178555612f47565b600085815260208120601f198616915b82811015613f7c57888601518255948401946001909101908401613f5d565b5085821015613f9a5787850151600019600388901b60f8161c191681555b5050505050600190811b01905550565b604081526000613fbd6040830185613614565b90508260208301529392505050565b6001600160a01b0385811682528416602082015260408101839052608060608201819052600090613b0790830184613614565b60006020828403121561401157600080fd5b81516132af816135bd565b6000835161402e8184602088016135f0565b8351908301906140428183602088016135f0565b0194935050505056fea26469706673582212200731c5df848c3b0a4131d147ebf71ad8f70eac013fc60c3fef3bb9569e3b43f464736f6c63430008140033",
  "linkReferences": {},
  "deployedLinkReferences": {}
}